{
  "contractName": "CommunityFactory",
  "abi": [
    {
      "constant": true,
      "inputs": [
        {
          "name": "",
          "type": "uint256"
        }
      ],
      "name": "members",
      "outputs": [
        {
          "name": "name",
          "type": "string"
        },
        {
          "name": "dna",
          "type": "uint256"
        },
        {
          "name": "level",
          "type": "uint32"
        },
        {
          "name": "readyTime",
          "type": "uint32"
        },
        {
          "name": "convertCount",
          "type": "uint16"
        },
        {
          "name": "parentMember",
          "type": "uint16"
        },
        {
          "name": "converted",
          "type": "bool"
        },
        {
          "name": "location",
          "type": "string"
        }
      ],
      "payable": false,
      "stateMutability": "view",
      "type": "function"
    },
    {
      "constant": false,
      "inputs": [],
      "name": "renounceOwnership",
      "outputs": [],
      "payable": false,
      "stateMutability": "nonpayable",
      "type": "function"
    },
    {
      "constant": true,
      "inputs": [],
      "name": "owner",
      "outputs": [
        {
          "name": "",
          "type": "address"
        }
      ],
      "payable": false,
      "stateMutability": "view",
      "type": "function"
    },
    {
      "constant": true,
      "inputs": [],
      "name": "isOwner",
      "outputs": [
        {
          "name": "",
          "type": "bool"
        }
      ],
      "payable": false,
      "stateMutability": "view",
      "type": "function"
    },
    {
      "constant": true,
      "inputs": [
        {
          "name": "",
          "type": "uint256"
        }
      ],
      "name": "memberAddress",
      "outputs": [
        {
          "name": "",
          "type": "address"
        }
      ],
      "payable": false,
      "stateMutability": "view",
      "type": "function"
    },
    {
      "constant": false,
      "inputs": [
        {
          "name": "newOwner",
          "type": "address"
        }
      ],
      "name": "transferOwnership",
      "outputs": [],
      "payable": false,
      "stateMutability": "nonpayable",
      "type": "function"
    },
    {
      "anonymous": false,
      "inputs": [
        {
          "indexed": false,
          "name": "id",
          "type": "uint256"
        },
        {
          "indexed": false,
          "name": "name",
          "type": "string"
        },
        {
          "indexed": false,
          "name": "dna",
          "type": "uint256"
        }
      ],
      "name": "NewMember",
      "type": "event"
    },
    {
      "anonymous": false,
      "inputs": [
        {
          "indexed": true,
          "name": "previousOwner",
          "type": "address"
        },
        {
          "indexed": true,
          "name": "newOwner",
          "type": "address"
        }
      ],
      "name": "OwnershipTransferred",
      "type": "event"
    },
    {
      "constant": false,
      "inputs": [
        {
          "name": "_name",
          "type": "string"
        }
      ],
      "name": "createRandomMember",
      "outputs": [],
      "payable": false,
      "stateMutability": "nonpayable",
      "type": "function"
    }
  ],
  "bytecode": "0x60806040526010600155600154600a0a60025561012c600355336000806101000a81548173ffffffffffffffffffffffffffffffffffffffff021916908373ffffffffffffffffffffffffffffffffffffffff1602179055506000809054906101000a900473ffffffffffffffffffffffffffffffffffffffff1673ffffffffffffffffffffffffffffffffffffffff16600073ffffffffffffffffffffffffffffffffffffffff167f8be0079c531659141344cd1fd0a4f28419497f9722a3daafe3b4186f6b6457e060405160405180910390a3610dbb806100e36000396000f300608060405260043610610083576000357c0100000000000000000000000000000000000000000000000000000000900463ffffffff1680631767bef7146100885780635daf08ca146100f1578063715018a6146102595780638da5cb5b146102705780638f32d59b146102c7578063ac5ad188146102f6578063f2fde38b14610363575b600080fd5b34801561009457600080fd5b506100ef600480360381019080803590602001908201803590602001908080601f01602080910402602001604051908101604052809392919081815260200183838082843782019150505050505091929192905050506103a6565b005b3480156100fd57600080fd5b5061011c6004803603810190808035906020019092919050505061041f565b60405180806020018981526020018863ffffffff1663ffffffff1681526020018763ffffffff1663ffffffff1681526020018661ffff1661ffff1681526020018561ffff1661ffff168152602001841515151581526020018060200183810383528b818151815260200191508051906020019080838360005b838110156101b0578082015181840152602081019050610195565b50505050905090810190601f1680156101dd5780820380516001836020036101000a031916815260200191505b50838103825284818151815260200191508051906020019080838360005b838110156102165780820151818401526020810190506101fb565b50505050905090810190601f1680156102435780820380516001836020036101000a031916815260200191505b509a505050505050505050505060405180910390f35b34801561026557600080fd5b5061026e6105ef565b005b34801561027c57600080fd5b506102856106c1565b604051808273ffffffffffffffffffffffffffffffffffffffff1673ffffffffffffffffffffffffffffffffffffffff16815260200191505060405180910390f35b3480156102d357600080fd5b506102dc6106ea565b604051808215151515815260200191505060405180910390f35b34801561030257600080fd5b5061032160048036038101908080359060200190929190505050610741565b604051808273ffffffffffffffffffffffffffffffffffffffff1673ffffffffffffffffffffffffffffffffffffffff16815260200191505060405180910390f35b34801561036f57600080fd5b506103a4600480360381019080803573ffffffffffffffffffffffffffffffffffffffff169060200190929190505050610774565b005b600080600660003373ffffffffffffffffffffffffffffffffffffffff1673ffffffffffffffffffffffffffffffffffffffff168152602001908152602001600020541415156103f557600080fd5b6103fe82610793565b905060648181151561040c57fe5b068103905061041b8282610815565b5050565b60048181548110151561042e57fe5b9060005260206000209060040201600091509050806000018054600181600116156101000203166002900480601f0160208091040260200160405190810160405280929190818152602001828054600181600116156101000203166002900480156104da5780601f106104af576101008083540402835291602001916104da565b820191906000526020600020905b8154815290600101906020018083116104bd57829003601f168201915b5050505050908060010154908060020160009054906101000a900463ffffffff16908060020160049054906101000a900463ffffffff16908060020160089054906101000a900461ffff169080600201600a9054906101000a900461ffff169080600201600c9054906101000a900460ff1690806003018054600181600116156101000203166002900480601f0160208091040260200160405190810160405280929190818152602001828054600181600116156101000203166002900480156105e55780601f106105ba576101008083540402835291602001916105e5565b820191906000526020600020905b8154815290600101906020018083116105c857829003601f168201915b5050505050905088565b6105f76106ea565b151561060257600080fd5b600073ffffffffffffffffffffffffffffffffffffffff166000809054906101000a900473ffffffffffffffffffffffffffffffffffffffff1673ffffffffffffffffffffffffffffffffffffffff167f8be0079c531659141344cd1fd0a4f28419497f9722a3daafe3b4186f6b6457e060405160405180910390a360008060006101000a81548173ffffffffffffffffffffffffffffffffffffffff021916908373ffffffffffffffffffffffffffffffffffffffff160217905550565b60008060009054906101000a900473ffffffffffffffffffffffffffffffffffffffff16905090565b60008060009054906101000a900473ffffffffffffffffffffffffffffffffffffffff1673ffffffffffffffffffffffffffffffffffffffff163373ffffffffffffffffffffffffffffffffffffffff1614905090565b60056020528060005260406000206000915054906101000a900473ffffffffffffffffffffffffffffffffffffffff1681565b61077c6106ea565b151561078757600080fd5b61079081610b30565b50565b600080826040518082805190602001908083835b6020831015156107cc57805182526020820191506020810190506020830392506107a7565b6001836020036101000a03801982511681845116808217855250505050505090500191505060405180910390206001900490506002548181151561080c57fe5b06915050919050565b60006001600461010060405190810160405280868152602001858152602001600063ffffffff168152602001600354420163ffffffff168152602001600061ffff168152602001600061ffff16815260200160001515815260200160206040519081016040528060008152508152509080600181540180825580915050906001820390600052602060002090600402016000909192909190915060008201518160000190805190602001906108cb929190610cea565b506020820151816001015560408201518160020160006101000a81548163ffffffff021916908363ffffffff16021790555060608201518160020160046101000a81548163ffffffff021916908363ffffffff16021790555060808201518160020160086101000a81548161ffff021916908361ffff16021790555060a082015181600201600a6101000a81548161ffff021916908361ffff16021790555060c082015181600201600c6101000a81548160ff02191690831515021790555060e08201518160030190805190602001906109a6929190610cea565b505050039050336005600083815260200190815260200160002060006101000a81548173ffffffffffffffffffffffffffffffffffffffff021916908373ffffffffffffffffffffffffffffffffffffffff160217905550610a3c6040805190810160405280600781526020017f696e7374616c6c00000000000000000000000000000000000000000000000000815250610c2a565b600660003373ffffffffffffffffffffffffffffffffffffffff1673ffffffffffffffffffffffffffffffffffffffff168152602001908152602001600020819055507f704fbf394fbf5ed48acd34baa8b20bccb5dec44c91d76e2fa32949a69bd1a6dc8184846040518084815260200180602001838152602001828103825284818151815260200191508051906020019080838360005b83811015610aef578082015181840152602081019050610ad4565b50505050905090810190601f168015610b1c5780820380516001836020036101000a031916815260200191505b5094505050505060405180910390a1505050565b600073ffffffffffffffffffffffffffffffffffffffff168173ffffffffffffffffffffffffffffffffffffffff1614151515610b6c57600080fd5b8073ffffffffffffffffffffffffffffffffffffffff166000809054906101000a900473ffffffffffffffffffffffffffffffffffffffff1673ffffffffffffffffffffffffffffffffffffffff167f8be0079c531659141344cd1fd0a4f28419497f9722a3daafe3b4186f6b6457e060405160405180910390a3806000806101000a81548173ffffffffffffffffffffffffffffffffffffffff021916908373ffffffffffffffffffffffffffffffffffffffff16021790555050565b6000806005905060405180807f696e7374616c6c000000000000000000000000000000000000000000000000008152506007019050604051809103902060019004836040518082805190602001908083835b602083101515610ca15780518252602082019150602081019050602083039250610c7c565b6001836020036101000a0380198251168184511680821785525050505050509050019150506040518091039020600190041415610ce057809150610ce4565b8091505b50919050565b828054600181600116156101000203166002900490600052602060002090601f016020900481019282601f10610d2b57805160ff1916838001178555610d59565b82800160010185558215610d59579182015b82811115610d58578251825591602001919060010190610d3d565b5b509050610d669190610d6a565b5090565b610d8c91905b80821115610d88576000816000905550600101610d70565b5090565b905600a165627a7a723058206b29b146c041a4898bbfc7627e29c5813c95c7c6fb19c0c4537b87ade74382340029",
  "source": "pragma solidity ^0.4.24;\n\n/**\n * @title CommunityFactory\n * @author rama\n */\n\nimport \"../node_modules/openzeppelin-solidity/contracts/ownership/Ownable.sol\";\nimport \"../node_modules/openzeppelin-solidity/contracts/math/SafeMath.sol\";\n//import \"openzeppelin-solidity/contract/token/ERC20/ERC20.sol\";\n\ncontract CommunityFactory is Ownable {\n    using SafeMath for uint256;\n    uint dnaDigits = 16;\n    uint dnaModulus = 10 ** dnaDigits;\n    uint cooldownTime = 5 minutes; \n    \n    event NewMember (uint id, string name, uint dna);\n    \n    /*@dev es el tiempo que tiene que esperar para convertir a un nuevo miembro. La intención es que no salgan a cazar como locos y que todos puedan hacer comunidad.*/\n\n  struct Member {\n    string name;\n    uint dna;\n    uint32 level;\n    uint32 readyTime;\n    uint16 convertCount;\n    uint16 parentMember;\n    bool converted;\n    string location;\n  }\n\n  Member[] public members;\n  mapping (uint => address) public memberAddress;\n  mapping (address => uint) memberToken;  //Esto hay que reemplazarlo por un ERC20\n\n  function _getPrice(string _type) internal pure returns (uint){\n    uint prizeInstall = 5; //tokens\n   // uint prizeConvertMember = 10;\n    //uint prizeConvertSpecialMember = 20;\n    //uint prizeConvertKeyMember = 30;\n    if (uint(keccak256(_type)) == uint(keccak256(\"install\"))){\n        return prizeInstall;\n    }\n    return prizeInstall;\n\n  }\n  function _createMember(string _name, uint _dna) internal {\n    uint id = members.push(Member(_name, _dna, 0, uint32(now + cooldownTime), 0, 0,false,\"\")) - 1;\n    memberAddress[id] = msg.sender;\n    memberToken[msg.sender] = _getPrice(\"install\");\n    emit NewMember(id, _name, _dna); //Evento\n  }\n  function _generateRandomDna(string _str) private view returns (uint) {\n    uint rand = uint(keccak256(_str));\n    return rand % dnaModulus;\n  }\n  function createRandomMember(string _name) public {\n    require(memberToken[msg.sender] == 0);\n    uint randDna = _generateRandomDna(_name);\n    randDna = randDna - randDna % 100;\n    _createMember(_name, randDna);\n  }\n}",
  "sourcePath": "/Users/ramirogalvan/Documents/GitHub/evento/contracts/communityfactory.sol",
  "compiler": {
    "name": "solc",
    "version": "0.4.24+commit.e67f0147.Emscripten.clang"
  },
  "schemaVersion": "2.0.1",
  "updatedAt": "2018-12-16T21:00:41.260Z"
}